:100000000C942A000C9434000C9434000C943400AA
:100010000C9434000C9434000C9434000C94340090
:100020000C9434000C9434000C9434000C94340080
:100030000C9434000C9434000C9434000C94340070
:100040000C9434000C9434000C9434000C94340060
:100050000C94340011241FBECFE5D8E0DEBFCDBF25
:100060000E9436010C9452010C940000813041F042
:1000700028F0823039F0833039F008956ABB089552
:1000800067BB089564BB089561BB0895413061F575
:10009000813079F028F08230A9F08330E1F00895C2
:1000A0002AB381E090E001C0880F6A95EAF7822BBD
:1000B0002EC027B381E090E001C0880F6A95EAF76F
:1000C000822B30C024B381E090E001C0880F6A9594
:1000D000EAF7822B32C021B381E090E001C0880FA3
:1000E0006A95EAF7822B34C0411133C0813089F020
:1000F00028F08230C9F0833011F108952AB381E0ED
:1001000090E001C0880F6A95EAF7809582238ABB48
:10011000089527B381E090E001C0880F6A95EAF75F
:100120008095822387BB089524B381E090E001C0CD
:10013000880F6A95EAF78095822384BB089521B3DE
:1001400081E090E001C0880F6A95EAF780958223EC
:1001500081BB0895813041F028F0823039F083303E
:1001600039F008956BBB089568BB089565BB089589
:1001700062BB0895413061F5813079F028F082301A
:10018000A9F08330E1F008952BB381E090E001C045
:10019000880F6A95EAF7822B2EC028B381E090E0A1
:1001A00001C0880F6A95EAF7822B30C025B381E041
:1001B00090E001C0880F6A95EAF7822B32C022B323
:1001C00081E090E001C0880F6A95EAF7822B34C085
:1001D000411133C0813089F028F08230C9F083307A
:1001E00011F108952BB381E090E001C0880F6A956A
:1001F000EAF7809582238BBB089528B381E090E0D5
:1002000001C0880F6A95EAF78095822388BB08951C
:1002100025B381E090E001C0880F6A95EAF78095E8
:10022000822385BB089522B381E090E001C0880F4E
:100230006A95EAF78095822382BB0895813049F060
:1002400030F0823041F0833079F480B305C089B357
:1002500003C086B301C083B390E002C09595879533
:100260006A95E2F7982F9170892F08956FEF80E0DB
:100270000E943600C0E041E06C2F80E00E94BA008E
:100280002FE986E891E0215080409040E1F700C0DE
:10029000000040E06C2F80E00E94BA00CF5FC830C1
:0802A00051F7E8CFF894FFCFFD
:00000001FF
